:020000040800F2
:10000000005000205D080008390800083B0800087F
:1000100000000000000000000000000000000000E0
:100020000000000000000000000000003D08000883
:1000300000000000000000003F0800084108000820
:10004000AD080008AD08000849080008AD08000820
:10005000AD080008AD080008AD080008AD080008AC
:1000600000000000AD080008AD080008AD08000859
:10007000AD080008AD080008AD080008AD0800088C
:10008000AD080008AD080008AD0800080000000039
:10009000AD080008AD080008AD080008AD0800086C
:1000A000AD080008AD080008AD080008AD0800085C
:1000B000AD080008AD0800080000000000000000C6
:1000C000002243088B4274D303098B425FD3030A97
:1000D0008B4244D3030B8B4228D3030C8B420DD3AA
:1000E000FF22090212BA030C8B4202D31212090238
:1000F00065D0030B8B4219D300E0090AC30B8B4276
:1001000001D3CB03C01A5241830B8B4201D38B0323
:10011000C01A5241430B8B4201D34B03C01A5241C8
:10012000030B8B4201D30B03C01A5241C30A8B420B
:1001300001D3CB02C01A5241830A8B4201D38B02F6
:10014000C01A5241430A8B4201D34B02C01A52419A
:10015000030A8B4201D30B02C01A5241CDD2C3090C
:100160008B4201D3CB01C01A524183098B4201D388
:100170008B01C01A524143098B4201D34B01C01A73
:10018000524103098B4201D30B01C01A5241C308EB
:100190008B4201D3CB00C01A524183088B4201D35A
:1001A0008B00C01A524143088B4201D34B00C01A46
:1001B0005241411A00D20146524110467047FFE7B2
:1001C00001B5002000F006F802BDC0460029F7D0B6
:1001D00076E770477047C046002B11D1002A0FD137
:1001E000002900D1002802D00021C943080007B42B
:1001F000024802A14018029003BDC046D9FFFFFF8C
:1002000003B4684601B5029801F0F8FE019B9E46D2
:1002100002B00CBC7047C0461C2101231B0498424D
:1002200001D3000C10391B0A984201D3000A083987
:100230001B09984201D30009043902A2105C40183E
:100240007047C046040302020101010100000000E2
:100250000000000010B5002903D1FFF7DDFF2030BA
:1002600002E00800FFF7D8FF10BDC0460448054B68
:1002700010B5834203D0044B002B00D0984710BD2B
:100280001000002010000020000000000648074970
:10029000091A8B10C90FC91810B5491003D0044BA7
:1002A000002B00D0984710BD100000201000002047
:1002B0000000000010B5074C2378002B09D1FFF790
:1002C000D5FF054B002B02D0044800E000BF0123FE
:1002D000237010BD1000002000000000F02E000868
:1002E000054B10B5002B03D00449054800E000BFC2
:1002F000FFF7CCFF10BDC046000000001400002036
:10030000F02E000870B584B005000E0003AA144B4F
:100310001B7813700A230093093B802100F062FED2
:10032000041E02D0200004B070BD02AA0023138076
:100330000A330093083B8021280000F00DFF041EC3
:10034000F0D102AA13781B025078184302F0AAFCDD
:10035000044A054B02F0DAF930607160E2E7C0460A
:10036000082F00087B14AE47E17A543F30B587B0C0
:1003700005000C0005AA164B1B7813700A23009386
:10038000093B802100F02EFE002801D007B030BDCF
:1003900004AA002313800A330093083B802128001D
:1003A00000F0DAFE0028F1D104AB5A7807218A4325
:1003B00014435C7003AA002111701B785370947071
:1003C0000A230093073B8031280000F00BFEDDE795
:1003D0000C2F000810B50021FFF7C8FF10BD10B5A5
:1003E0000221FFF7C3FF10BDF0B5CE46474680B5EA
:1003F0008BB01422002105A802F082FC3A4BDA6A85
:1004000004273A43DA62DA6A3A400092009AD96ADB
:1004100080221143D962D96A0A400192019ADA6AAC
:10042000012188460A43DA62DA6A0A400292029A95
:10043000D96A02221143D962D96A0A400392039A07
:10044000DA6A082189460A43DA62DB6A0A000B404D
:100450000493049B7A31254E073A8900300000F05E
:10046000B3FB234B0593032506950024079405A9A8
:10047000300000F0DDFA05950695079405A91D48A2
:1004800000F0D6FA4B460593093306930794089477
:1004900005A9300000F0CCFA174B05930695079498
:1004A000A02005A9C00500F0C3FA144B05930695DA
:1004B000079405A9124800F0BBFA80239B0005931E
:1004C000434606930794089405A9300000F0B0FA5B
:1004D00005970695079405A90A4800F0A9FA0BB0FC
:1004E000C0BCB946B046F0BD001002400008005044
:1004F000F4FD0000001C0050FF9F0000FFFF000003
:1005000000040050000C0050064A136802210B43FF
:100510001360054A136902310B431361BFF34F8F18
:1005200030BFFBE70070004000ED00E010B572B690
:10053000FA2000F00BFA80218900024800F04AFB03
:10054000F6E7C0460008005010B50E480E4B036099
:10055000002343607F2282608032C2600361436176
:100560008361C36101F016FC002807D1054804220D
:100570003C2101F065FC002802D110BDFFF7D6FF39
:10058000FFF7D4FF2C0000200028004010B51348CE
:10059000134B0360E123DB004360002383600122EF
:1005A000C260036143618361C361036200F0B4FC14
:1005B00000280CD10948002100F088FE002808D14D
:1005C0000648002100F0AEFE002804D110BDFFF760
:1005D000ADFFFFF7ABFFFFF7A9FFC04650000020BB
:1005E0000078004000B59BB0342200210DA802F035
:1005F00087FB1422002108A802F082FB20220021A0
:10060000684602F07DFB1D490A681D4B1A40802395
:100610001B0113430B6018230D93173B1293139385
:1006200000231493A0221202159216930DA800F035
:10063000FBFE00281BD10F230893002309930A9384
:100640000B930C93002108A801F07CF9002810D12D
:1006500090235B0000930023069380239B02019369
:10066000684601F05BFA002805D11BB000BDFFF71A
:100670005DFFFFF75BFFFFF759FFC04600700040CA
:10068000FFE7FFFF30B583B000F03AF9FFF7AAFFAC
:10069000FFF7AAFEFFF758FFFFF778FF364B5B68BE
:1006A0009B0704D5344A116808230B431360324A70
:1006B000136804210B4313604B2519E08021890046
:1006C0002E4800F087FA280001F0D6FF2C4901F0EF
:1006D00061FD041C011C01F06FFE211C01F06CFE89
:1006E000274901F069FE01F0A7FF00F02FF9013D55
:1006F000002DE3DC234C2000FFF771FE1F4D00228C
:100700000821280000F060FA8021002289002800DA
:1007100000F05AFAFA20800000F018F9694620002B
:10072000FFF7F0FD002801D0FFF700FF1548FFF7A5
:1007300051FE154800F00AF900254A2D1ADC8021E7
:1007400089000E4800F046FA280001F095FF0C4998
:1007500001F020FD041C011C01F02EFE211C01F003
:100760002BFE074901F028FE01F066FF00F0EEF8CD
:100770000135E2E7FFF7C8FE0070004000080050B6
:10078000000096425000002070170000054B5A6B85
:1007900001210A435A63996B802252050A439A63E6
:1007A0007047C0460010024010B586B00400142205
:1007B000002101A802F0A4FA22680F4B9A4201D04E
:1007C00006B010BD0D4CE26A04231A43E262E26AED
:1007D00013400093009B032301931222029204937F
:1007E0000433059301A9064800F022F9A26B802387
:1007F000DB051343A363E3E70078004000100240E9
:100800000008005010B50268094B9A4200D010BD94
:10081000084A116D8023DB020B431365002200217F
:10082000022000F0F1F8022000F0F2F8EFE7C046F5
:100830000028004000100240FEE7FEE770477047C6
:1008400010B500F071F810BD10B5024801F08AFB38
:1008500010BDC0462C000020704700000D488546A2
:10086000FFF7FAFF0C480D490D4A002302E0D45867
:10087000C4500433C4188C42F9D30A4A0A4C0023EA
:1008800001E013600432A242FBD302F08DFAFFF7BD
:10089000F9FEFEE7005000200000002010000020BC
:1008A000BC2F00081000002040020020FEE70000DE
:1008B00010B504000F4B1978FA208000FFF700FCF8
:1008C00001000D4B1868FFF7FBFB00F0ADF80028A6
:1008D0000DD1032C01D901200AE0013000222100B2
:1008E000404200F091F8054B1C60002000E0012020
:1008F00010BDC046040000200000002008000020B9
:1009000010B5084A136840210B4313600320FFF71A
:10091000CFFF041E02D00124200010BDFFF736FFD8
:10092000FAE7C04600200240034A1168034B1B78D7
:100930005B1813607047C046A4000020040000202C
:10094000014B18687047C046A400002070B5040031
:10095000FFF7F6FF0500631C02D0044B1B78E41878
:10096000FFF7EEFF401BA042FAD370BD0400002049
:1009700070B5002811DB8308134DC0339B005C5910
:1009800003221040C000FC3216008640B4438901A7
:100990000A40824022435A5170BD0F230340083B56
:1009A0009B0806339B00094A944663445C68032213
:1009B0001040C000FC3215008540AC4389010A405C
:1009C000824022435A60E7E700E100E000ED00E0EA
:1009D000013880235B0498420FD2094A50600948CD
:1009E000036A1B021B0AC02109060B430362002392
:1009F000936007331360002070470120FCE7C04676
:100A000010E000E000ED00E010B5FFF7B1FF10BD11
:100A1000002805DB1F22024001239340014A136096
:100A20007047C04600E100E010B5FFF7D1FF10BDF0
:100A3000F0B5002356E086685F000324BC40A6435F
:100A4000CC68BC4034438460446894434E683609A3
:100A5000012232409A402243426053E0DE080836C9
:100A6000B600375805321A4092000F249440A7432D
:100A70000C69944022003A43325056E0052600E0CB
:100A80000026A64034003C4302329200464E945168
:100A9000464A9768EA433E00AE434C68E40201D5FB
:100AA0003E002E43414CA660E7683E0016404C686D
:100AB000A40201D53E002E433C4CE66067683E0030
:100AC00016404C68A40301D53E002E43374C6660A7
:100AD000266832404C68E40301D52A003243334C87
:100AE000226001330C682200DA405CD001229A4077
:100AF000250015401442F4D04E6803243440013CD4
:100B0000012C98D94C6803222240032A08D0C468DB
:100B10005E000322B24094438A68B2402243C2601E
:100B20004C6803222240022A98D004685E00032207
:100B30001700B740BC434F683A40B24022430260BE
:100B40004C68C02292021442CBD0194C626B012631
:100B5000324362639A08941CA400134EA7590324DD
:100B60001C40A4000F26A640B743A026F605B042BD
:100B700086D0104EB0420ED00F4EB0420DD00F4E68
:100B8000B0420CD00E4EB0420BD00E4EB04200D14F
:100B900074E7062675E7012673E7022671E7032648
:100BA0006FE704266DE7F0BD00000140000401403E
:100BB000001002400004005000080050000C0050DB
:100BC00000100050001C0050002A01D081617047C5
:100BD0008162FCE7426913000B401B0491430B4305
:100BE00083617047026893699B0701D50023936274
:100BF00003689A69D20703D49A6901210A439A616A
:100C00007047000010B58905890D1204114319437E
:100C1000029B194349004908046862685B0D802003
:100C2000C0000340034803439A4313000B4363602F
:100C300010BDC046FF63FF03F0B5C64600B5040013
:100C40000D00170001688B69102216001E401A4221
:100C500000D175E01023CB61002398460026206860
:100C600083699B0631D4002E2FD16B1CF7D0FFF780
:100C700067FEC01BA84201D8002DF0D121684B6847
:100C80008022D20113404222A25CD2B288690004C1
:100C900003D5002B01D1202A0ED123689B699B0626
:100CA000DDD4FFF74DFEC01B1928F6D9202342469C
:100CB0001A4390460126D2E74A688023DB0113439A
:100CC0004B60FFF73DFE0700E7E7002E01D1202330
:100CD000C3610426434633431E00012522689369FD
:100CE000D90504D501210E43FF31D16101255A05F3
:100CF00006D50822164322688021C900D16101254A
:100D00009B051FD502231E43236880229200DA61CF
:100D100001252000FFF766FF226853680B490B404E
:100D20005360636C3343636441232022E254002305
:100D30002232A354023AA354280080BCB846F0BD26
:100D40000025CBE7002DF7D0E3E7C04600E800FE22
:100D500070B504000D00160023689B699B0720D422
:100D6000320029002000FFF767FF00281BD16B1C11
:100D7000F2D0FFF7E5FD801BA84201D8002DEBD192
:100D800023689B699B07E7D4636C20221343636449
:100D90004123E25400232232A354023AA3540120F7
:100DA00000E0002070BD0120FCE7F0B5CE4600B5A4
:100DB00082B007000D00160099463B689C692C40E4
:100DC000641B63425C410196B44221D14B4601331E
:100DD000F3D0FFF7B5FD089BC01A484502D84B4633
:100DE000002BEAD13B689B692B405B1B5A42534165
:100DF000019A9342E1D17B6C202213437B6441230F
:100E0000FA5400232232BB54023ABB54012000E0C2
:100E1000002002B080BCB946F0BD70B504000D00E2
:100E2000160003E023689B699B0612D523689B6923
:100E30009B061BD4320029002000FFF7FDFE00288E
:100E400016D1FFF77DFD801BA842EBD8002DEDD118
:100E5000E8E7636C2022134363644123E2540023D8
:100E60002232A354023AA354012000E0002070BDB6
:100E70000120FCE770B504000D00160024E0936922
:100E80005B0702D5238D002B41D19369DB0614D576
:100E90001023D3610C3B636423682022DA6121684C
:100EA0004B681C4803404B604123E254002322322C
:100EB000A354023AA354012029E000236364EBE722
:100EC00023689B695B0716D523689B695B071DD464
:100ED000320029002000FFF7AFFE002818D1226859
:100EE00093699B06CBD4FFF72BFD801BA842E7D864
:100EF000002DE9D1E4E7636C2022134363644123AE
:100F0000E254013B0022E254012000E0002070BDC9
:100F10000120FCE700E800FE10B5041E59D0412373
:100F2000C35C002B43D041232422E254226813687F
:100F300001218B4313606368226827490B401361CA
:100F40002268936825490B409360E368012B34D0F5
:100F5000A168226884231B020B439360E368022B81
:100F600032D0226851681E4B0B4353602268D3680D
:100F70001A490B40D360236962691343A2691202C4
:100F800021681343CB60E369216A22680B43136035
:100F90002268136801210B4313600023636441221C
:100FA0001F31A15423630132A354002010BD4033EC
:100FB0000022C254FFF7F8FBB5E7A168226880233E
:100FC0001B020B439360C9E72368802212015A6019
:100FD000C7E70120EAE7C046FFFFFFF0FF7FFFFF02
:100FE00000800002F0B585B004000F000292039368
:100FF0000A9D4123C35C202B00D09BE02033C35CBF
:10100000012B00D199E040230122C254FFF798FC44
:101010000600802100901923012209022000FFF719
:10102000C4FE002800D08AE041232122E25401338B
:10103000113AE25400236364029A6262039A628561
:101040006363638D9BB2FF2B0BD9FF2323857F3B0B
:101050003F4A00925B04FF2239002000FFF7D2FDD7
:1010600018E0628D92B222858023D2B23849009175
:101070009B0439002000FFF7C5FD0BE0628D92B2A2
:1010800022858023D2B2002100919B0439002000E8
:10109000FFF7B8FD638D9BB2002B34D032002900DE
:1010A0002000FFF755FE00284BD1626A23681278B2
:1010B0009A62636A01336362638D013B9BB263850D
:1010C000238D013B9BB22385628D92B2002AE1D031
:1010D000002BDFD100962B00002280212000FFF79B
:1010E00064FE00282FD1638D9BB2FF2BC6D9FF234E
:1010F00023857F3B002200925B04FF3239002000F1
:10110000FFF780FDC6E7320029002000FFF785FECB
:1011100000281AD123682022DA6121684B680D4D1E
:101120002B404B604123E25400232232A354023A65
:10113000A35400E0022005B0F0BD0220FBE701202F
:10114000F9E70120F7E70120F5E70120F3E7C046C2
:101150000020008000E800FEF0B585B004000F001C
:10116000029203930A9D4123C35C202B00D09BE095
:101170002033C35C012B00D199E040230122C254EB
:10118000FFF7DEFB060080210090192301220902EF
:101190002000FFF70AFE002800D08AE04123222227
:1011A000E2540133123AE25400236364029A626209
:1011B000039A62856363638D9BB2FF2B0BD9FF2378
:1011C00023857F3B3F4A00925B04FF2239002000C9
:1011D000FFF718FD18E0628D92B222858023D2B20B
:1011E000384900919B0439002000FFF70BFD0BE00C
:1011F000628D92B222858023D2B2002100919B049D
:1012000039002000FFF7FEFC638D9BB2002B34D029
:10121000320029002000FFF72DFE00284BD1236863
:101220005A6A636A1A70636A01336362238D013BF1
:101230009BB22385628D013A92B26285628D92B231
:10124000002AE1D0002BDFD100962B000022802164
:101250002000FFF7AAFD00282FD1638D9BB2FF2B42
:10126000C6D9FF2323857F3B002200925B04FF3217
:1012700039002000FFF7C6FCC6E732002900200035
:10128000FFF7CBFD00281AD123682022DA612168FC
:101290004B680D4D2B404B604123E254002322321A
:1012A000A354023AA35400E0022005B0F0BD02208E
:1012B000FBE70120F9E70120F7E70120F5E701202E
:1012C000F3E7C0460024008000E800FEF0B54123AB
:1012D000C35C202B20D12033C35C012B1ED04024C3
:1012E0000122025541252423435506683368934360
:1012F0003360066833680A4F3B40336006683368E2
:101300000B43336001680B6813430B602023435584
:10131000002303550020F0BD0220FCE70220FAE77D
:10132000FFEFFFFFF0B54123C35C202B1ED120331C
:10133000C35C012B1CD040240122025541252423EB
:101340004355066833689343336006683368094F32
:101350003B4009021943316001680B6813430B607D
:1013600020234355002303550020F0BD0220FCE755
:101370000220FAE7FFF0FFFF10B5264BDA680C23D6
:101380001340082B42D00C2B07D0042B34D1214B17
:101390001B68DB063CD5204837E0910C0F230B403F
:1013A0001E49C85C920D03231A40541C194BDB687C
:1013B000DB0309D51A4A0023002100F0F1FD2200C9
:1013C0000023FEF709FF20E0124B1B68DB0609D55E
:1013D000114A0023002100F0E3FD22000023FEF764
:1013E000FBFE12E00F4A0023002100F0D9FD22008D
:1013F0000023FEF7F1FE08E0064B5A68520B072364
:101400001340013380200002984010BD0448FCE7DF
:101410000448FAE70010024000093D00102F0008C0
:1014200000127A000024F400F0B583B0041E00D14D
:1014300065E2C54BDA680C251540DE6880235B0247
:101440001E400368DB0736D5082D2CD00C2D28D084
:10145000636880225202934255D0A022D202934266
:1014600058D0B94B1A68B9490A401A601A688021E5
:1014700049020A400192019A1A68B5490A401A6065
:101480006368002B52D0FFF75BFA0700AE4B1B6876
:101490009B0310D4FFF754FAC01B6428F6D903202D
:1014A0002EE2002ED4D0A84B1B689B0303D56368A3
:1014B000002B00D126E223689B076DD5E3689A06CE
:1014C00005D5A148026820210A4302608B43042D00
:1014D0003CD00C2D38D0002B00D1B0E09A490A68DE
:1014E0000920824313430B60FFF72AFA0600964B4C
:1014F0001B685B0700D599E0FFF722FA801B0228E2
:10150000F5D90320FCE1904A116880235B020B436C
:101510001360B5E78C4B19688022D2020A431A6027
:101520001968802252020A431A60A9E7FFF708FAF5
:101530000700854B1B689B03BDD5FFF701FAC01B55
:101540006428F6D90320DBE1002EC4D17E4A12685C
:10155000520702D5002B00D1D6E17B4E72687D493F
:101560000A40216909020A437260326809218A43EC
:1015700013433360FFF700FFF26812090F23134093
:10158000754AD35CD840754B1860754B1868FFF7E7
:101590008FF9002800D0B3E12368DB062DD5002D9C
:1015A00060D1694B1B689B0503D5A369002B00D153
:1015B000ACE1654A53686B490B40216A0B435360A9
:1015C00053681B021B0AE16909060B435360216A39
:1015D000490B013180231B028B40D16809090F227E
:1015E0000A405D498A5CD3405C4A13605C4B1868D2
:1015F000FFF75EF9002800D082E123681B077DD544
:101600006369002B67D0504A136D01210B431365AA
:10161000FFF796F906004C4B1B6D9B076ED4FFF746
:101620008FF9801B0228F6D9032069E146494B68EF
:10163000484A13402269120213434B60ACE7424A06
:10164000136801218B431360FFF77AF906003E4BC4
:101650001B685B07A0D5FFF773F9801B0228F6D93A
:1016600003204DE1A369002B22D0374A1168802363
:101670005B000B431360FFF763F90600324B1B68F6
:101680009B0506D4FFF75CF9801B0228F6D90320DE
:1016900036E12D4A536833490B40216A0B435360AE
:1016A00053681B021B0AE16909060B435360A4E758
:1016B000254A13682C490B401360FFF741F90600D7
:1016C000214B1B689B0598D5FFF73AF9801B022830
:1016D000F6D9032014E11C4A136D01218B431365D5
:1016E000FFF72EF90600184B1B6D9B0706D5FFF779
:1016F00027F9801B0228F6D9032001E123685B0744
:1017000000D48EE0104B9B6BDB001BD40E4A916B18
:1017100080235B050B4393630126144B1B68DB0599
:1017200028D5A36880225200934237D0002B4DD198
:10173000054B1A6D0C490A401A651A6D0C490A408E
:101740001A6531E00026E8E700100240FFFFFEFFC7
:10175000FFFFFBFFFFE0FFFF1C2F00080000002041
:1017600008000020FF1FFFFFFFFEFFFF007000408A
:10177000FFFBFFFF6B4A116880235B000B43136084
:10178000FFF7DEF80700674B1B68DB05C9D4FFF7DE
:10179000D7F8C01B6428F6D90320B1E0624A116D66
:1017A00080235B000B431365A368002B28D0FFF751
:1017B000C7F807005C4B1B6D9B0530D4FFF7C0F8E2
:1017C000C01B5A4B9842F5D9032099E0A022D200C1
:1017D000934209D0544B1A6D55490A401A651A6D47
:1017E00054490A401A65DFE74F4B196D013AFF3A39
:1017F0000A431A65196D802252000A431A65D3E71D
:10180000FFF79EF80700484B1B6D9B0507D5FFF7B8
:1018100097F8C01B454B9842F5D9032070E0012E84
:101820001AD0636A002B00D172E00C2D4FD0022B2E
:1018300018D03D4A136840490B401360FFF780F809
:101840000400394B1B689B013FD5FFF779F8001B5B
:101850000228F6D9032053E0334A936B37490B40F3
:101860009363DEE7304A136833490B401360FFF798
:1018700067F805002C4B1B689B0106D5FFF760F845
:10188000401B0228F6D903203AE02749CB682C4AAE
:101890001340A26AE06A0243206B02431343CB6009
:1018A0000A6880235B0413430B60FFF749F80400C8
:1018B0001D4B1B689B0106D4FFF742F8001B022852
:1018C000F6D903201CE000201AE0002018E0012BCC
:1018D00020D0154BDA6880235B021340A16A8B424B
:1018E0001AD1F0239B031340E16A8B4216D1C02327
:1018F0001B041A40236B9A4212D1002000E0012001
:1019000003B0F0BD0120FBE70120F9E70120F7E774
:101910000020F5E70120F3E70120F1E70120EFE7E0
:101920000120EDE700700040001002408813000025
:10193000FFFEFFFFFFFBFFFFFFFFFFFEFFFFFFEFCD
:10194000FFFF02FF70B505000C00002800D1D1E0B8
:101950006A4B1A68012313408B4219D32B689B07EB
:1019600006D5674AD368F0218B43A9680B43D3603F
:101970002B68DB077BD56B68022B20D0032B40D074
:10198000012B44D05E4A126892051DD4012099E0D3
:101990005A4A136801218B4323431360FEF7D0FF9B
:1019A0000600564B1A6801231340A342D6D0FEF717
:1019B000C7FF801B534A9042F3D9032082E0504A6C
:1019C0001268920300D497E04D49CA68032082430D
:1019D0001343CB60FEF7B4FF06006B68022B1CD0EC
:1019E000032B28D0012B34D0454BDB680C221A4244
:1019F0003DD0FEF7A5FF801B424B9842F4D903204F
:101A000060E03F4A12689201DED401205AE03C4A6D
:101A100012685207D8D4012054E0394BDA680C23FD
:101A20001340082B23D0FEF78BFF801B354A9042D2
:101A3000F3D9032046E0324BDA680C2313400C2B19
:101A400015D0FEF77DFF801B2E4B9842F3D9032063
:101A500038E02B4BDA680C231340042B07D0FEF739
:101A60006FFF801B274B9842F3D903202AE0234BBA
:101A70001A6801231340A34225D82B685B0706D5BB
:101A80001F4AD36820490B40E9680B43D3602B6899
:101A90001B0707D51A49CB681C4A13402A69D20094
:101AA0001343CB60FFF768FC154BDA6812090F236C
:101AB0001340174AD35CD840164B1860164B186871
:101AC000FEF7F6FE70BD0D4A136801218B432343D8
:101AD0001360FEF735FF0600084B1A680123134018
:101AE000A342CAD0FEF72CFF801B064B9842F3D9C5
:101AF0000320E7E70120E5E70120E3E700200240BB
:101B00000010024088130000FFF8FFFFFFC7FFFF2F
:101B10001C2F0008000000200800002070B5040001
:101B200003689B0651D5674B9B6BDB0000D58AE0B1
:101B3000644A916B80235B050B4393630126624BE0
:101B40001B68DB0500D480E05E4B1B686268534075
:101B5000C02189030B4206D0C0239B02110019400B
:101B6000994200D186E0574B196DC0239B020800B3
:101B70001840194215D01A40824212D023689B06A1
:101B80000FD5504B1A6D514911401D6D8020000337
:101B900028431865186D4E4D284018651965D20503
:101BA0006FD423689B060ED56368C0229202190089
:101BB0001140914274D043490B6D6268C02080028D
:101BC000024013430B65012E74D02368DB0706D552
:101BD0003C4AD36C03218B43A1680B43D364236835
:101BE0009B0706D5374AD36C0C218B43E1680B4326
:101BF000D36423685B0706D5324AD36C35490B4062
:101C000021690B43D36423681B0706D52D4AD36C87
:101C100031490B4061690B43D3642368DB0506D56A
:101C2000284AD36C29490B40A1690B43D36423682C
:101C30001B0645D5234AD36C28490B40E1690B4369
:101C4000D36400203DE0002679E71F4A1168802315
:101C50005B000B431360FEF773FE05001A4B1B6815
:101C6000DB0500D570E7FEF76BFE401B6428F5D955
:101C7000032026E0134B1B689B0300D473E701206D
:101C80001FE0FEF75DFE05000E4B1B6D9B0588D423
:101C9000FEF756FE401B124B9842F5D9032010E088
:101CA00008490A680F480240C020800303401343DC
:101CB0000B6080E7034A936B0B490B40936384E707
:101CC000002070BD0010024000700040FFFFFCFFCC
:101CD000FFFFF7FFFFF3FFFFFFCFFFFFFFFFF3FF64
:101CE00088130000FFFFCFFFFFFFFFEF70B5040078
:101CF00003680A4ADA60FEF723FE05002368DB6802
:101D00009B0608D4FEF71CFE401BFA239B0098425A
:101D1000F4D9032000E0002070BDC0465FFF010041
:101D200070B504000268D3685B0602D50025280060
:101D300070BDD36880210B43D360FEF701FE06001F
:101D400000252368DB685B06F1D4012DEFD0FEF798
:101D5000F7FD801BFA2292009042F2D9212304223F
:101D6000E2540125EDE710B504000268D368802134
:101D70008B43D36003689B689B0601D5002010BD90
:101D8000FFF7B4FF0028FAD021230422E2540120F7
:101D9000F5E7000070B5041E4ED02123C35C002B74
:101DA0000BD021230222E2542268D368DB060AD535
:101DB000002021230122E25470BD20330022C254AE
:101DC000FEF720FDEDE7CA235362236853225A62CF
:101DD0002000FFF7A5FF002805D02368FF225A62E4
:101DE0000028E9D1E5E72268936814490B40936025
:101DF00021688A68636820690343A0690343134329
:101E00008B602368E2681A6121680B69A26812047A
:101E100013430B612000FFF7A6FF0028DDD12268E5
:101E2000D36C03218B43D3642168CB6CE269656971
:101E30002A431343CB64D0E70120BDE7BFFF8FFFE8
:101E400070B582B006000C001500414B1868FA21ED
:101E5000C901FEF735F94201121A92001218D20098
:101E600001922023F35C012B00D16EE0202301219D
:101E7000F15401330131F1543368C8315962336888
:101E80007739596231688B685B0508D5019B013B46
:101E90000193019B002B42D0CB685B07F6D48B6883
:101EA0002C4803408B603068C368FF2119402A4BDF
:101EB0000B43C3600192019B013B0193019B002BEB
:101EC00037D03268D3685B07F5D5936807218B4319
:101ED0009360326893682B43936033685C611F4B57
:101EE0001968802252031143196099680A439A6065
:101EF000326891688023DB010B43936032689168FC
:101F00008023DB000B4393603368FF225A62212356
:101F1000FE3AF254013B0022F254002013E0FF335A
:101F20004B62DE3B0322F254013B0022F2540320B9
:101F300009E03368FF225A622123FC3AF254013B44
:101F40000022F254032002B070BD0220FBE7C0461D
:101F500000000020FFFBFFFF7FFBFFFF00040140AC
:101F60007047000010B504000B4B802252035A61E9
:101F7000026893685B0402D5D3685B0503D4212310
:101F80000122E25410BDD368FF211940034B0B43DB
:101F9000D360FFF7E5FFF2E7000401407FFBFFFF9E
:101FA000F0B5CE469946030C9C46130447461B0CDD
:101FB0001D000E0061460404240C80B50700100CBF
:101FC0004B436543414360432C0CC01824188C4696
:101FD000A34203D980235B029846C444494679430F
:101FE0005643230C2D042D0C8919634424046019D5
:101FF000C918C0BCB946B046F0BDC046F0B557469A
:102000004E464546DE46E0B504000D009246994630
:1020100083B08B4230D82DD049465046FEF71AF98E
:10202000290006002000FEF715F9331A9846203BD8
:1020300034D49B4653465A46934042461F0053466B
:1020400093401E00AF423BD8AF4200D179E05B46DF
:10205000A41BBD41002B00DA76E000220023009291
:10206000019301235A469340019301234246934032
:10207000009329E08242CFD90022002300920193ED
:102080000C9B002B01D01C605D600098019903B08F
:10209000F0BCBB46B246A946A046F0BD42469B46B0
:1020A00020239B1A5246DA40414613004A468A4092
:1020B000170042461F43534693401E00AF42C3D908
:1020C00000220023009201934346002BD8D0FB0747
:1020D00072081A4346467B080EE0AB4201D1A24289
:1020E0000CD8A41A9D41012024196D410021013E04
:1020F00024184D41002E06D0AB42EED9013E2419E2
:102100006D41002EF8D1009801995B460019694194
:10211000002B24DB2B005A464446D3402A00E240E1
:102120001C005B461500002B2ADB26009E40330076
:1021300026004746BE403200801A99410090019126
:102140009EE7A342BCD882E74246202300219B1A87
:102150000022009101920122DA40019285E7424675
:1021600020239B1A2A0046469A402300F340444607
:1021700013432A00E2401C005B461500002BD4DA12
:1021800042462F002023260097409B1ADE403B004A
:102190003343CDE7F0B546464F46D6464502C0B577
:1021A000C30F470098460E1C6D0A3F0E57D0FF2FF5
:1021B00021D08023ED00DB041D43002399469A467D
:1021C0007F3F74027300640A1B0EF60F002B20D0B1
:1021D000FF2B4CD080220020E400D20414437F3B2C
:1021E0004246FF1A4B4672400F2B00D9ACE06F49B4
:1021F0009B00CB589F46002D5BD108239946063B98
:1022000074029A467300FF27640A1B0EF60F002B18
:10221000DED1002C30D10123424649467240194399
:102220000E2904D86248890041588F464246FF2053
:102230000024C0052043D2071043E0BCBA46B14693
:10224000A846F0BD5346022BF0D0032B00D1A3E0EB
:1022500042462C00012B35D100200024E9E7002D57
:102260001BD104239946033B00279A46A9E7002C7B
:102270000CD10223FF3FCFE72000FDF7CDFF431F26
:102280009C4076235B421B1A0020A9E703234A46A1
:102290001A4391460320FC33A2E72800FDF7BCFF58
:1022A0007627431F9D4000237F4299469A463F1A56
:1022B00087E70C239946093BFF279A4681E70328C5
:1022C0006CD0320038007F30002825DD630704D051
:1022D0000F232340042B00D00434230103D53800FE
:1022E000344B80301C40FE28A1DCA401640AC0B23B
:1022F0009FE780240022FF20E4039AE78023DB038A
:102300001D4201D01C424BD08024E4032C436402C4
:102310004246FF20640A8CE701231B1A1B2B9BDC1F
:1023200021009E37D940BC400B00611E8C412343E5
:10233000590704D00F211940042900D00433590152
:1023400026D50120002474E76D016001854213D277
:102350001B230024013F0126290064006D00002991
:1023600001DBA84201D82D1A3443013B002BF3D1E5
:102370006B1E9D412C43A5E71A2301242D1AEAE781
:10238000981E43425841404232000024C0B250E7F8
:102390009B0100205C0A4CE746462C008023DB03AF
:1023A0001C4364023200FF20640A42E72C2F00081D
:1023B0006C2F0008FFFFFFF7F0B54F464646D646A4
:1023C0004502C0B546000F1C6D0A360EC40F002E24
:1023D00000D1C3E0FF2E77D08023ED00DB041D4346
:1023E000002399469A467F3E7B025B0A98467B0013
:1023F0001B0EFF0F002B77D0FF2B00D194E042463D
:102400008021D200C9041143884600217F3BF61881
:102410004B46721C0A2B73DC4B467C40022B00DCC3
:10242000A7E0484601238340A620C000034267D1AD
:1024300090208000034200D0ECE0B938FF38184209
:1024400000D0DAE041460904090C43460F00280C8D
:102450002D041B0C2D0C6F4341435D4358436D18F5
:102460003B0C5B19994203D9802149028C46604498
:102470003F0419043F0CC9198D016F1EBD411B0C8F
:10248000890E1B180D439B011D431B0100D4C6E0A0
:10249000012369081D400D4310007F30002800DC37
:1024A00094E06B0704D00F232B40042B00D004359D
:1024B0002B0103D5803210005E4B1D40FE2855DCF9
:1024C000AB015B0AC0B226E0002D00D078E0082303
:1024D0009946063B9A467B025B0A98467B00FF269C
:1024E0001B0EFF0F002B87D14346002B56D14A46C7
:1024F00001331A4391464B460121721C0A2B8BDD96
:102500005346022B32D0032B00D17CE05346012BE3
:10251000C2D100200023C0051843E4072043E0BCDB
:10252000BA46B146A846F0BD33004246FF33002A02
:102530003FD0032249461143721C8946FF320A29C3
:1025400073DD0F295DD18023DB031D425BD0424642
:102550001A4258D13C00FF201343DCE7002D11D173
:1025600004239946033B00269A463DE7FF200023BB
:10257000D1E7013B012B00D964E70229F6D045469B
:102580008A46C3E72800FDF747FE7626431F9D4095
:102590000023764299469A46361A25E74046FDF7CB
:1025A0003BFE4246431F9A40361A90460021763E33
:1025B0002EE749460232114389461E00022127E7D1
:1025C0000C239946093BFF269A460DE701231B1A67
:1025D0001B2B9EDC9E3229009540D9406A1E9541F6
:1025E0000D436B0704D00F232B40042B00D0043580
:1025F0006B0116D5012000238DE73C0045468A4635
:102600007EE73C0045468023DB032B435B02FF2033
:102610005B0A80E780230024FF20DB037BE7320096
:102620003AE7AB0100205B0A75E71E0003217C40FE
:10263000F7E6C046FFFFFFF741024200C30F490A19
:102640000020120E7E2A03DD9D2A02DD094A981819
:102650007047802000040143952A07DC9620821AE7
:10266000D1404842002BF3D10800F1E7963A91405F
:10267000F7E7C046FFFFFF7F70B5002813D0C317F0
:10268000C5185D40C40F2800FDF7C6FD9E2301005C
:102690001B1A962B0FDC082831D008398D406D02AB
:1026A0006D0AD8B202E0002400200025C0052843AE
:1026B000E407204370BD992B15DC421F95402A008A
:1026C000150011480540560709D00F263240042A4C
:1026D00005D004356A0102D59F2305405B1AAD0180
:1026E0006D0AD8B2E2E70522121A2800D0400A008B
:1026F0001B3295402A00551EAA410243E0E76D02B5
:1027000096206D0AD2E7C046FFFFFFFBF0B55746A3
:102710004E46DE464546E0B589B0009201930B0374
:102720001B0B9A46CA0F4B00040091465B0D00D16B
:10273000BCE1D84A934200D14AE15146420FC90058
:102740000A43802109041143C2009046D24A8A46B6
:102750009C18002300250393009E019F3B031B0B45
:102760009B46FA0F7B0030005B0D049200D16FE1B5
:10277000C84A934200D153E15946720FC9000A4337
:10278000802109041143C44A8B46944600216344C6
:10279000F0001B195C1C0A2D00DD26E14E46049A50
:1027A0005640F2B20092022D00DCA8E10122AA40BC
:1027B000A6271500FF003A403D4200D013E19027C4
:1027C000BF003D4200D016E288222A4200D0EFE14D
:1027D000414642460904090C0D00170C020C000486
:1027E000000C4543AC46050016007D43A8460D008D
:1027F0007E43039204963200039E75436646360C70
:10280000B14645444D44A84505D9160080225202E0
:102810009046464404962E0C059666463604360CC1
:10282000B4462D04654406955D462D0CA9465D46CB
:102830000E002D042D0C6E43B4462E007E43B3468D
:102840004E467143594488466146090C41447743DA
:102850008B4503D980225202904647440E0CB04665
:102860003E004644079666463704059E3F0CB44634
:102870000904C9198C44664605965646360CB4467A
:10288000564637043F0C3E004643B0466646464334
:10289000B24646466046360CB346039A50437A43E6
:1028A00052445A44924503D980267602B246504497
:1028B000160CB24682444046120490460004000CB6
:1028C0003A004E46804460466A437743454370432E
:1028D00084467819170C3F18BD4203D98020400266
:1028E0008146CC44059D0498A946079E48448842E9
:1028F0008941B14612043D04120CAA184A444942C7
:1029000055184044A9464045AD41C8466D42AB46C6
:10291000B242924189458941D044C344494252421E
:102920000A43AB45AD41D04589416D4249420D4313
:1029300059463F0CD219521962445202C90D069DE4
:1029400011438A46410229434D1EA941C00D084347
:102950005946490208438046D20100D473E101225E
:102960004308024013435246D20713439846534646
:102970005B089A46009B9946484BE318002B00DC05
:10298000E5E0424652070AD00F2241460A40042A97
:1029900005D0043141459241884652429244524604
:1029A000D20106D552463E4B1A4080239246DB00A8
:1029B000E3183C4A934200DD9DE04246D10852466E
:1029C00052070A4351465B054C02240B5B0D19E08C
:1029D00052460243904600D0B3E01C0002239246C8
:1029E00008250393B8E6009B9946039B022B00D170
:1029F00081E0032B00D1F5E0039B012BBCD1002328
:102A00000024002210004A461B052343D20713432B
:102A1000190009B0F0BCBB46B246A946A046F0BDBD
:102A20005B46009E1E431B4BE318002E00D181E045
:102A300003224E461543049A5640F2B20092802279
:102A40001201944664440A2D00DDB7E00321ADE68F
:102A50005B46009A134365D05B46002B00D1E2E051
:102A60005846FDF7D9FB020003000B3A1D27009ED4
:102A7000BA1A19005846D640083988403200024335
:102A8000009893468840084AE31A9446002163441C
:102A900080E6C046FF07000001FCFFFFFF030000C7
:102AA000FFFFFFFEFE0700000DFCFFFF5346034340
:102AB000984630D05346002B00D1A2E05046FDF797
:102AC000ABFB0B235B429C460200844466461D23FD
:102AD0009B1B260011005046DE4008398840330019
:102AE00003439A4623008B4098460023694C0025F7
:102AF000A41A039330E600240022674B82E7013DCD
:102B0000012D00D964E6009B99460229F3D0DA46EC
:102B10008046039170E700239A4601330425002480
:102B2000039319E6002201331D439346230000203E
:102B300001212FE6022215430022002093460221A4
:102B400028E61C00032380460C25039304E601219C
:102B5000C91A382900DD52E71F2978DD1F225242A9
:102B6000D31A5246DA401300202907D04B4A414677
:102B7000944652466444A240114388464246511E40
:102B80008A411A43072319000024114013420BD035
:102B90000F231340042B7BD0131D9342A4411A0032
:102BA000644261076402240BD20800230A4329E728
:102BB000049BDA4699468046039116E70F2D0DD106
:102BC00080245346240323420CD05B46234209D180
:102BD0001C43049B020099462F4B13E7049BDA46E3
:102BE000994680468024534624031C4324034246CE
:102BF000294B240B06E70023802499462403264B07
:102C000000E7FDF709FB15239C4684440200634658
:102C100020321C2B00DC59E700239846230008389B
:102C200083409A4661E7FDF7F7FA02000300153288
:102C300020331C2A00DC19E702000099083A914071
:102C400000208B461FE7009A1C00914694E6144B27
:102C500052469C4643466444A240CB401A434346F6
:102C6000A340581E834154461A43CC40530709D011
:102C70000F231340042B05D0131D9342924152425F
:102C8000A4181A0023028CD5012300240022B9E6DF
:102C9000002486E70DFCFFFFFF0700003E04000054
:102CA0001E04000070B5002816D0C317C5185D407B
:102CB000C40F2800FDF7B0FA104B1B1A5B055B0D23
:102CC0000A2814DC02002E00153296400B22121A3C
:102CD000D5402D032D0B03E0002400230025002602
:102CE0001B052B43E40723433000190070BD0B384C
:102CF00085402D0300262D0BF2E7C0461E04000080
:102D0000F0B50500830749D0541E002A45D00300C2
:102D10000326CAB202E00135013C3ED301332A70DA
:102D20003342F8D1032C30D9FF220A401502AD18E6
:102D30002A04AD180F2C34D92700103F3F093E015B
:102D4000B4461E001A001036664415605560956042
:102D5000D56010329642F8D101373F01DB190F27B9
:102D60000C22274022403C00002A0ED03E1FB6080D
:102D7000B400A4461A001C1D644420C2A242FCD127
:102D800003240136B6009B193C40002C05D0C9B283
:102D90001C19197001339C42FBD1F0BD03001400D3
:102DA000C0E72700E2E7C04670B50D4B0D4D5E1B36
:102DB000B610AB4205D0002408CD01349847A64296
:102DC000FAD800F095F8084B084D5E1BB610AB42E0
:102DD00005D0002408CD01349847A642FAD870BD2A
:102DE000B02F0008B02F0008B82F0008B02F00083F
:102DF0007047C0467047C046034B10B5002B02D049
:102E0000024800F005F810BD00000000212E000867
:102E100010B5010000230022002000F015F810BDBD
:102E200070B5074C074D641BA41005D0013CA300EE
:102E3000EB589847002CF9D100F060F870BDC046FF
:102E4000BC2F0008B82F0008F0B5D6464F464646BE
:102E50009846244BC0B5060018689A460F00914664
:102E6000FFF7C6FF204B1D68002D32D053466C681B
:102E700018681F2C30DC002E0CD1631C0234A40017
:102E80006B606751FFF7B6FF0020E0BCBA46B14661
:102E9000A846F0BD49468822A300EB189950C421EA
:102EA00049008C46AC446146873AA2400968914685
:102EB0001143624611608421424649005A50022E55
:102EC000DBD129004A468D31FF310B6813430B607B
:102ED000D3E7064D1D60C9E7FFF78CFF0120404294
:102EE000D3E7C0460C000020AC000020B00000205A
:102EF000F8B5C046F8BC08BC9E467047F8B5C04659
:082F0000F8BC08BC9E467047B6
:102F08000200000000000000030406080C1018204E
:102F1800300000000000000000000000010203046F
:102F280006070809482300082E220008582200082E
:102F3800BE22000858220008F22200085822000881
:102F4800BE2200082E2200082E220008F2220008C5
:102F5800BE22000844220008442200084422000837
:102F6800FC2200082E2200082E2200085822000801
:102F78008023000858220008F2220008582200087E
:102F8800802300082E2200082E220008F2220008C2
:102F98008023000844220008442200084422000834
:082FA80054F0FF7F010000005E
:082FB000F92D0008E102000800
:042FB800B502000856
:102FBC00000020000100000004000000A800002018
:040000050800085D8A
:00000001FF
